:020000040000FA
:10000000380220206D010000710100007301000022
:1000100000000000000000000000000000000000E0
:10002000000000000000000000000000750100005A
:100030000000000000000000770100002114000013
:100040007B010000BD0900007B0100007B01000076
:100050007B0100007B0100007B0100007B010000B0
:10006000000000007B0100007B0100000000000098
:10007000000000007B0100007B0100007B0100000C
:100080007B0100007B0100007B0100007B01000080
:100090007B0100007B010000000000000000000068
:1000A0007B0100007B010000000000000000000058
:1000B0007B010000000000007B0100007B010000CC
:1000C00000F002F800F042F812A030C808382418F6
:1000D0002D18AC4201D100F039F80FCCA246AB4646
:1000E0000CA730CF2D1B083F3F197C427F1E544484
:1000F0002D090426F441641EAC4201D300F026F819
:100100000126334200D0FB1A3343984754465D46DC
:10011000DFE700002C2200003C220000000000006D
:100120007047000000000000002300240025002686
:10013000103A01D378C1FBD8520700D330C100D5A3
:100140000B6070471FB51FBD10B510BD00F02CFA35
:100150001146FFF7F7FF01F07BFA00F044FA03B411
:10016000FFF7F2FF03BC00F099FA000006480047D1
:10017000FEE7FEE7FEE7FEE7FEE7FEE70348044989
:10018000024A044B70470000C100000038012020E3
:100190003802202038012020002203098B4273D32B
:1001A000030A8B4258D3030B8B423CD3030C8B4284
:1001B00021D312E003460B437FD4002243088B4235
:1001C00074D303098B425FD3030A8B4244D3030BDE
:1001D0008B4228D3030C8B420DD30902FF2212BAA3
:1001E000030C8B4202D31212090265D0030B8B421F
:1001F00019D300E0090AC30B8B4201D3CB03C01A09
:100200005241830B8B4201D38B03C01A5241430BE3
:100210008B4201D34B03C01A5241030B8B4201D3D3
:100220000B03C01A5241C30A8B4201D3CB02C01A3E
:100230005241830A8B4201D38B02C01A5241430AB6
:100240008B4201D34B02C01A5241030A8B4201D3A5
:100250000B02C01A5241CDD2C3098B4201D3CB014C
:10026000C01A524183098B4201D38B01C01A5241FB
:1002700043098B4201D34B01C01A524103098B42FF
:1002800001D30B01C01A5241C3088B4201D3CB00EA
:10029000C01A524183088B4201D38B00C01A5241CD
:1002A00043088B4201D34B00C01A5241411A00D27D
:1002B00001465241104670475DE0CA0F00D04942E6
:1002C000031000D3404253409C46002203098B4256
:1002D0002DD3030A8B4212D38901FC2212BA030ADE
:1002E0008B420CD3890192118B4208D38901921160
:1002F0008B4204D389013AD0921100E08909C309E5
:100300008B4201D3CB01C01A524183098B4201D3E6
:100310008B01C01A524143098B4201D34B01C01AD1
:10032000524103098B4201D30B01C01A5241C30849
:100330008B4201D3CB00C01A524183088B4201D3B8
:100340008B00C01A5241D9D243088B4201D34B00D3
:10035000C01A5241411A00D201465241104663462A
:100360005B1001D34042002B00D5494270476346E1
:100370005B1000D3404201B50449002802DC491C4F
:10038000084000E00846C046C04602BDFFFFFF7FB0
:100390007047704770470000F0B5FF252D04C6096F
:1003A000C209FF2704462E400137CB093E4348408F
:1003B0002A402B400746002A6BD0002B69D0AA4266
:1003C00067D0AB4265D0002800DA32460125ED0542
:1003D00029432C4309022002090AD21A4B0C7F241C
:1003E000E31A434C000A7C44E35C7D242404121984
:1003F00014145B00A218884201D3521C00E0400094
:1004000049420C465C4324115C43DB016415E3184C
:10041000040A5C43C502200D0C4644436419250AB6
:100420005D432303EC0C0D46654300030019EB18F4
:100430004C42A34201D35B18401CD4052018002B6A
:1004400007D05B00C91804D3401C002901D1400823
:1004500040003F2189048A4209D3002A08DC1106A2
:10046000090F04D0032149074018C00FC007F0BD91
:1004700001224100120689187F2252069142F6D2CB
:1004800005214907C84201D59010F0BDFF20C005E5
:10049000F0BD002F00DA32461648AA4207D2AB421E
:1004A00005D21902090E17D0F80FC007F0BDFF25BD
:1004B00063002D06AB42F9D84900A942F6D8AB42F9
:1004C00001D1A942F2D0A94201D1002101E061008D
:1004D0004908D0050843F0BD1102090EFBD0FF20EA
:1004E0000243D005F0BD0A460146104654E700001D
:1004F000BE1600000000C07F10B501469E24000219
:10050000CA15A307002A02D01843002A04DBA21A46
:10051000002A0CDDD04010BD1206120E01D14000A1
:100520004008A21A03D4D04040420028F3DDFF2245
:1005300048001206904201D9002010BDC817C043E0
:10054000584010BD10B5FF231B0644009C421DD827
:100550004C009C421AD80346124A0B4307D4401A57
:1005600002D3EFF3008010BDEFF3008010BD081A36
:1005700003D3EFF30080904305E0EFF30080012107
:100580009043C907084380F3008810BD0D231B0466
:100590001A4204D01146002000F02DF810BD00F0E2
:1005A00041F810BD00000090754600F043F8AE46DB
:1005B000050069465346C008C000854618B020B5FE
:1005C000FFF7DCFD60BCB64600260027C0C5C0C5ED
:1005D000C0C5C0C5C0C5C0C5C0C5C0C5403D49082F
:1005E00049008D46704710B50446C046C0462046B7
:1005F000FFF7B5FD10BDC80212D54803400F002813
:1006000004D0C803C043012188407047EFF3008045
:100610000001000903210907084380F3008870479F
:100620000020704710B5024800F008F810BD000027
:100630000000C07F004870470000202010B50C4625
:100640001107090F092904D00A290AD008290CD159
:1006500004E011460820FFF7CEFF06E0510606D55C
:1006600001E0510601D50120C007214610BDD10689
:1006700007D501010909CC084907000E000604430B
:1006800009E0410F20024907000A0143200E00063D
:100690001D22D14101430846E7E700000149182027
:1006A000ABBEFEE7260002007047811E091F00BF97
:1006B000FCD2704710B5002A0FD091235B01C318FC
:1006C0000020DC692405240F05D00C5C1C60401C54
:1006D0008242F6D1104680B210BD002080B210BD1B
:1006E00070B50A780C231A400124240305196E689A
:1006F0009E43B2186A604978072211400359934318
:100700005918015170BD0000F0B57A4A82183B4B70
:10071000C31808794E793A4D784C002E23D0202802
:1007200004D00526F601002803D003E0354E00284A
:1007300000D18826576F2F4037435767976F2F4058
:1007400037439767566B26405663966B26409663F1
:100750000026566596658F26F6435F6837405F60D2
:100760009F6837409F608E79096820280BD0002849
:1007700019D1491E5160D76E2F4088210F43D7668B
:100780001746703719E0491E5160D16E29401D4F40
:100790003943D166116F2940394311670121490757
:1007A000194D174609E049085160D76E2F400521C1
:1007B000C9010F43D766174670373C682C400C437D
:1007C0003C60D16A4D4C2140D162116B21401163D4
:1007D0000021D16411658F21C943D46F0C40D467C7
:1007E0001C680C401C600643BD2030401168074B5C
:1007F0000B40C018801C1060F0BDC046841800007B
:1008000024493E0001040000FFFFFFCF4000FFCF5E
:10081000B0B54A68364BC250364A80180A78222A48
:1008200058D8930001A4E3589F46C046CB08000067
:10083000D5080000CB080000D5080000D50800004E
:10084000D5080000D5080000D5080000D508000034
:10085000D5080000D5080000D5080000D508000024
:10086000D5080000D5080000D5080000B908000030
:10087000D5080000B9080000D5080000D508000020
:10088000D5080000D5080000D5080000D5080000F4
:10089000D5080000D5080000D5080000D5080000E4
:1008A000D5080000D5080000D5080000B9080000F0
:1008B000D5080000B908000003231B0704689C4307
:1008C00001235B07E318036004E003231B070468AC
:1008D0009C4304600B69C360CB68074C1C40C36A2F
:1008E000064D1D402B19C362097A11430160B0BD4A
:1008F0000818000004180000777702008888FDFFC0
:1009000010B507239B04194092008018024A8458AE
:100910009C436118815010BD3018000010B5029C36
:10092000A400001911431943014A815010BDC0466B
:100930005018000092008018014A81507047C0464C
:100940001018000010B50122120383180C789C6067
:100950004B7883508978014A815010BD0C110000FA
:10096000B0B51122120283580124A34383500B888F
:100970008C781C438B882343094C1C408358094DB9
:100980001D40631983508B79CC791C43097A21432C
:100990007E231940801842689A4351184160B0BDC7
:1009A00018670000E798FDFF10B5012212038318B5
:1009B0000C789C604978815010BD0000F0B583B080
:1009C0000322510326480346103B1E6834460C4060
:1009D000244D2C60D2031B681C461440224D2C6011
:1009E0000125B404214C10D4274676041BD56C0392
:1009F00002943C6801941E4C24680094029C019E61
:100A00002642009C0CD1661C0BE02768184E366805
:100A10007F0402D42746761E03E02746761C00E0BA
:100A2000661E134C26601C0409D4DB030FD5EC03AF
:100A30003D68104B1B68254206D05B1E05E03C68F4
:100A40000C4B1B68E403F8D55B1C0A4C236003685D
:100A50000B43036001681143016003B0F0BDC04661
:100A600048300A40280120202C01202080330A40F1
:100A7000640020206000202003480078002802D075
:100A800002480221016070476800202000E100E078
:100A900001208005014908607047C04690320A4035
:100AA00080B50146012082030A4B1A60C003186119
:100AB00009480022FFF73EFF80BDC04680B50146D1
:100AC00001221003034B1860500318610248FFF71E
:100AD00031FF80BD90120A4000208640B0B5B020A2
:100AE0000025294600F0EAF92846294600F0E6F9F3
:100AF0001020294600F0E2F900240121204600F0F0
:100B0000DDF9681C45B2002DF6D5B120214600F074
:100B1000D5F92046214600F0D1F91020214600F0F9
:100B2000CDF900250121284600F0C8F9601C44B227
:100B3000002CF6D5B220294600F0C0F928462946F7
:100B400000F0BCF91020294600F0B8F9002401217A
:100B5000204600F0B3F9681C45B2002DF6D5B3204D
:100B6000214600F0ABF92046214600F0A7F91020FD
:100B7000214600F0A3F900250121284600F09EF946
:100B8000601C44B2002CF6D5B420294600F096F93A
:100B90002846294600F092F91020294600F08EF9E7
:100BA00000240121204600F089F9681C45B2002D7F
:100BB000F6D5B520214600F081F92046214600F007
:100BC0007DF91020214600F079F900250121284601
:100BD00000F074F9601C44B2002CF6D5B62029460A
:100BE00000F06CF92846294600F068F910202946E3
:100BF00000F064F900240121204600F05FF9681C30
:100C000045B2002DF6D5B720214600F057F9204611
:100C1000214600F053F91020214600F04FF9002042
:100C2000012100F04BF9601C44B2002CF7D5B0BD97
:100C3000F0B581B059480068800733D4DB48DC49FF
:100C40000160DC4981204860DB48801E0860DB4D84
:100C500002272F602F6300262F600124204600F01A
:100C60003BFD284610380760204600F035FDD4488B
:100C70000068C00703D1701C632E0646ECD3CB4A34
:100C8000CB481060CB4BCC481860586060061968A0
:100C900001431960596801435960101FC949016037
:100CA00000F046FAC825284600F016FDAE200024C4
:100CB000214600F003F92046214600F0FFF81020FD
:100CC000214600F0FBF840263046214600F0F6F8B9
:100CD0008120214600F0F2F8CF20214600F0EEF806
:100CE000A120214600F0EAF82846214600F0E6F867
:100CF000A6252846214600F0E1F8A820214600F06C
:100D0000DDF83F20214600F0D9F8D320214600F03D
:100D1000D5F82046214600F0D1F8D520214600F034
:100D2000CDF88020214600F0C9F8D920214600F0F6
:100D3000C5F8F120214600F0C1F8DA20214600F084
:100D4000BDF81220214600F0B9F8DB20214600F062
:100D5000B5F83046214600F0B1F82020214600F0D9
:100D6000ADF80220214600F0A9F88D20214600F0C0
:100D7000A5F81420214600F0A1F8A420214600F097
:100D80009DF82846214600F099F8FFF7A7FEAF200E
:100D9000214600F093F801B0F0BDC04634120F4078
:100DA000F0B587B01C4601920D4605905E08082BF1
:100DB00002D10620069006E06007E108002800D076
:100DC000491C7143069128465038C0B20027394665
:100DD00000F074F80598000910300490394600F0CE
:100DE0006DF80F20059908400390394600F066F829
:100DF000069800283BD001982038C1B20620059102
:100E000048431C4908180190029409E00198C01950
:100E10000078012100F052F87F1C0698B84226D0D5
:100E200038463146FFF7B8F9082C17D0002915D1FC
:100E300028465038C0B22C4635460026314600F0D0
:100E40003DF80498314600F039F8039831462E46B3
:100E50002546029C00F032F86D1C01E0082CD5D02C
:100E6000102C04D10598000103490818CFE707B0FA
:100E7000F0BDC046E81A0000101D0000F0B583B0B8
:100E80001578002D18D00746082B01D05E0800E029
:100E90000626002402920196F8B2EAB20E461D46DA
:100EA000FFF77EFF029A2B463146019EBF19641C54
:100EB000E0B2155C002DEFD103B0F0BDF0B583B00A
:100EC00002AD6870481E81418801287001A800F0B9
:100ED00021FCA948022429462246FFF7EBFB2E4DB0
:100EE000AC612E480168890608D40168890605D4DA
:100EF0000168890602D401688906F3D5011F083804
:100F00000268274B1340783303600868254A024083
:100F1000254810180860286880073AD4684600F011
:100F2000F9FB01980A3000998142F4D31F48204907
:100F300001607A49812048601F48801E08601F4E6A
:100F400034603463002734600125284600F0C4FB78
:100F5000304610380460284600F0BEFB1848006890
:100F6000C00703D1781C632F0746ECD30F4A104803
:100F700010606A4B10481860586068061968014391
:100F80001960596801435960101F0E49016000F053
:100F9000CFF803B0F0BDC04630100F4018120F401C
:100FA00000F8FFFFF8FF00F00700020004080F4000
:100FB000030000B10480424083000C00A0120A40EC
:100FC00080130A400100002670B50646204C2146D9
:100FD00000F0A7FC0028254600D13546002628460B
:100FE000314600F0A9FC002800D12E4619493046B0
:100FF00000F002FD2146FFF7CFF9FFF77DFA164911
:1010000041189C480122FFF795FC70BD70B504465D
:101010000F4D294600F085FC00282E4600D12646BB
:1010200000243046214600F087FC0028204600D1ED
:101030003046084900F0E0FC2946FFF7ADF9FFF71C
:101040005BFA054941188B482246FFF773FC70BDD7
:101050000000344300004843D6060000F0B52B4B97
:10106000832058630120420529490A6084221A63BB
:10107000C404284A146087249C6144040C608524BD
:101080005C6106040E60244CA71C244D2F606F6029
:1010900047062A683A432A606A683A436A608222AD
:1010A0002A651F4A6A6581365E641E4A1A64812277
:1010B000DA601A615A609A605C659C659C66DC66C1
:1010C000AC60EC602C616C616C67AC67EC671C60B9
:1010D0000A46403A0F231C0314600C600D4C214655
:1010E000303982050A602260152189060E4A14688B
:1010F0000C43146011690143116158030B490A6ADA
:1011000002430A620A6802430A60F0BD84804240DA
:10111000D0120A40D0320A4081000C0004804240C4
:101120008200040081000E0090330A4028300A40FB
:1011300080B511481149FFF7D3FA03204102104846
:1011400002680A43026001210A0203681343036034
:101150000022426107224262836B9343836312023F
:10116000836B93438363826A042313438362826A9B
:101170000A43826280BDC04600000F400023000089
:1011800000120F40F0B581B0194C1A492046FFF704
:10119000D9FB19492046FFF7B7FA0025009510261C
:1011A0002046294632462B46FFF7B8FB2046294603
:1011B0002A46FFF7A5FB114920462A46FFF7BAFB4E
:1011C000012700972046294632462B46FFF7A6FB0B
:1011D000204629463A46FFF793FB204607493A4600
:1011E000FFF7A8FB064887600321016001B0F0BD4E
:1011F0000020864002230000082300001027000082
:1012000000318640F0B581B01A4C1B492046FFF7EB
:1012100099FB1A492046FFF777FA002500952046EA
:1012200029462A462B46FFF779FB204629462A46BF
:10123000FFF766FB7D200601204631462A46FFF770
:1012400079FB01270097204629462A462B46FFF7BF
:1012500065FB204629463A46FFF752FB20463146B9
:101260003A46FFF767FB064887600321016001B03B
:10127000F0BDC04600000940102300001423000008
:10128000001109401048002101600320C0430F49AC
:101290000A46083A1368034013600A680120824333
:1012A0000A6002020B6893430B600203091F0B687C
:1012B00013430B60FF210902054A13688B43800327
:1012C000181810607047C04608030B4008010B4017
:1012D00000E400E010B50C4C0C492046FFF732FB4F
:1012E0000B492046FFF794FA0A480168012211438E
:1012F00001600948016880230B437F218B43036011
:101300000648026010BDC046004008401C23000093
:10131000202300002850084010E400E00851084055
:1013200010B5154C15492046FFF73EFB14492046E1
:10133000FFF716FB0320C103124802688A430260CC
:101340000169114A0A40911C016141690B220A435B
:1013500034218A434261416801221140436893432A
:10136000591841609102094B1C680C431C600168CC
:101370001143016010BDC0460080104034230000BE
:1013800036230000009110400000FFFF289010401D
:1013900080B500F015F8FFF761FEFFF773FFFFF768
:1013A00031FFFFF7EFFEFFF795FFFFF7C1FEFFF7F5
:1013B000B7FFB820014900220A5480BD6C002020EC
:1013C000F0B581B00D480E4941600E4A51600E4B98
:1013D00059600E4C61600E4D69600E4E71600E4F8B
:1013E00079600E49016011601960216029603160E7
:1013F00039601020FFF759F901B0F0BD00080A402C
:10140000030000B100280A40000809400028864077
:101410000048084000080F400088104001000026E6
:10142000C1480168491C01607047C04610B50948B1
:101430000949416009490A68094B1A400324A40775
:1014400012190A60002282600722026008681840B0
:10145000086010BD10E000E0FF7C000020ED00E01F
:10146000FFFFFF00F0B585B0002545221024284677
:1014700029462346FFF794FC08206E22294623467E
:10148000FFF78EFC6322204629462346FFF788FC9F
:101490001820412229462346FFF782FC20203A22C9
:1014A00029462346FFF77CFC7D20C000009063485E
:1014B00000680190624E03952C460FE001200390D6
:1014C00030200143CAB2E8002830C0B20021102306
:1014D000FFF766FC641C6D1C082D39D00727072C0C
:1014E00001D101211EE0781BE9B2091F03290497ED
:1014F00001D2012108E0FC220240002301217143B6
:101500001B1DDFB29742FAD103221040049F09D07D
:10151000012801D10A2004E0022801D0009800E04F
:1015200064204143019800F001F90A210291FEF77D
:1015300033FE062DC4D803980028C1D10029BDD19F
:10154000E8002830C0B20021202210230391BFE719
:1015500000250224452204971027284621463B46B1
:10156000FFF71EFC08206E2221463B46FFF718FCC1
:101570006322384621463B46FFF712FC18204222E0
:1015800021463B46FFF70CFC20203A2221463B46F1
:10159000049FFFF705FC2B480068019003952C463B
:1015A0000FE00120039030200143CAB2E800283048
:1015B000C0B202211023FFF7F3FB641C6D1C082D41
:1015C00039D0072C01D101211DE0781BE9B2091F98
:1015D000032901D2012108E0FC220240002301215D
:1015E00071431B1DDFB29742FAD103221040049FC2
:1015F00009D0012801D1029804E0022801D0009806
:1016000000E064204143019800F090F80A21FEF7C1
:10161000C3FD062DC7D803980028C4D10029C0D126
:10162000E8002830C0B2022120221023FFF7B8FBC7
:1016300000200390C1E705B0F0BDC0466000202047
:10164000102700006400202080B500F045F880BD20
:10165000FFF79EFEFFF7EAFEFFF7EAFAFFF70CFA44
:10166000164C2046FFF7B0FC2046FFF7CFFCFFF7F3
:101670000FFA002412A21025204621462B46FFF720
:10168000FDFB022110A220462B46FFF7F7FB0120AD
:1016900000040F4908600F4908607D200401FFF72E
:1016A000E1FE3220FFF7D0FF2046FFF7F9F9204690
:1016B000FFF704FAFFF712FAF1E7C0460000B44260
:1016C000456E63413A000000456E63423A000000F7
:1016D00080E200E000E100E010B513490B680C4A1D
:1016E00013600B6814681B1B83420ED20B681468CE
:1016F0001B1B834209D20B6814681B1B834204D254
:101700000B6814681B1B8342EBD3002010BDC0463E
:1017100030012020002804D003490968016000201E
:10172000704701207047C0463401202043088B4297
:101730001AD3002203098B4279D3030A8B425ED36A
:10174000030B8B4242D3030C8B4227D30902FF22A7
:1017500012BA030C8B4202D31212090203D0030BFC
:101760008B4233D31AE0D3E0411A8041401C7047CA
:1017700003460B4371D443088B42F5D3002203097F
:101780008B4254D3030A8B4239D3030B8B421DD3B4
:10179000030C8B4202D394466EE0090AC30B8B42C2
:1017A00001D3CB03C01A5241830B8B4201D38B036D
:1017B000C01A5241430B8B4201D34B03C01A524112
:1017C000030B8B4201D30B03C01A5241C30A8B4255
:1017D00001D3CB02C01A5241830A8B4201D38B0240
:1017E000C01A5241430A8B4201D34B02C01A5241E4
:1017F000030A8B4201D30B02C01A5241CDD2C30956
:101800008B4201D3CB01C01A524183098B4201D3D1
:101810008B01C01A524143098B4201D34B01C01ABC
:10182000524103098B4201D30B01C01A5241C30834
:101830008B4201D3CB00C01A524183088B4201D3A3
:101840008B00C01A524143088B4201D34B00C01A8F
:101850005241411A524110007047CA0F00D049420C
:10186000031000D34042534000229C4603098B42A0
:101870002DD3030A8B4212D38901FC2212BA030A28
:101880008B420CD3890192118B4208D389019211AA
:101890008B4204D3890137D0921100E08909C30932
:1018A0008B4201D3CB01C01A524183098B4201D331
:1018B0008B01C01A524143098B4201D34B01C01A1C
:1018C000524103098B4201D30B01C01A5241C30894
:1018D0008B4201D3CB00C01A524183088B4201D303
:1018E0008B00C01A5241D9D243088B4201D34B001E
:1018F000C01A5241411A00D2014652411046634675
:101900005B1000D34042704763465B1000D34042F7
:1019100001B50021004201D0C9430846C046C04677
:1019200002BD10B500F014F8EFF300804000800F06
:10193000012800D0002010BD10B500F033F8EFF3FF
:101940000080800001D4012010BD002010BD0000E7
:101950000123DB0502000A430DD4DA4203D49A4284
:1019600007D488427047D84214D4D94212D488424E
:10197000704780427047DA4203D59A42F9D58142D6
:1019800070475B004200DA4204D24A00DA4201D2D8
:101990008142704710B5024AFEF7D4FD10BD00BF6A
:1019A000090013040123DB0502000A430DD4DA42C7
:1019B00003D49A4207D488427047D84214D4D942FB
:1019C00012D48842704780427047DA4203D59A4267
:1019D000F9D5814270475B004200DA4204D24A00E6
:1019E000DA4201D28142704710B5024AFEF7AAFDE1
:1019F00010BD00BF0900160470B5420064414B00E1
:101A00005C41120E39D01B0E38D0FF2A3CD0FF2B80
:101A10003AD0D2187F3A40024902400A490A451892
:101A2000ED0106004E43000A090A48430104731AF7
:101A30004019190C4318990F04D05B08012149077C
:101A40005B1A521CD80904D3401CF50301D19D0632
:101A500007D0FF2A08D2D50506D0E4072043401955
:101A600070BD0125A843F4E7002A01DCE00770BD42
:101A70002402FF202043C00570BD1B0EFF2A03D0A7
:101A8000FF2B01D0E00770BDFF2636064500B542AA
:101A900006D84D00B54203D8D218FF2A00D0E7E798
:101AA000004870BD0000C07F81828384858687885E
:101AB000898B8C8D8E8F919293959697999A9C9DF8
:101AC0009FA0A2A3A5A7A8AAACAEB0B2B3B5B7B960
:101AD000BCBEC0C2C5C7C9CCCED1D4D7D9DCDFE229
:101AE000E6E9ECF0F3F7FAFE000000000000000069
:101AF000002F000000000700070000147F147F146F
:101B000000242A7F2A1200626408132300364955F4
:101B1000225000000503000000001C2241000000CC
:101B200041221C000014083E08140008083E080862
:101B3000000000A0600000080808080800006060BD
:101B40000000002010080402003E5149453E0000FC
:101B5000427F4000004261514946002141454B31DE
:101B6000001814127F10002745454539003C4A49AA
:101B7000493000017109050300364949493600061C
:101B80004949291E00003636000000005636000084
:101B900000081422410000141414141400004122FF
:101BA000140800020151090600324959513E007CD7
:101BB0001211127C007F49494936003E41414122C1
:101BC000007F4141221C007F49494941007F0909AA
:101BD0000901003E4149497A007F0808087F00005A
:101BE000417F4100002040413F01007F0814224115
:101BF000007F40404040007F020C027F007F0408CD
:101C0000107F003E4141413E007F09090906003E28
:101C10004151215E007F0919294600464949493151
:101C20000001017F0101003F4040403F001F204074
:101C3000201F003F4038403F006314081463000732
:101C40000870080700615149454300007F41410089
:101C500000552A552A55000041417F000004020129
:101C60000204004040404040000001020400002007
:101C700054545478007F4844443800384444442045
:101C800000384444487F00385454541800087E09F2
:101C900001020018A4A4A47C007F080404780000BA
:101CA000447D4000004080847D00007F1028440077
:101CB0000000417F4000007C04180478007C080488
:101CC000047800384444443800FC242424180018C4
:101CD000242418FC007C08040408004854545420B0
:101CE00000043F444020003C4040207C001C204039
:101CF000201C003C4030403C004428102844001C7C
:101D0000A0A0A07C004464544C4414141414141473
:101D100000000000000000000000000000000000C3
:101D2000000000F800000000000000333000000058
:101D300000100C06100C060000000000000000005F
:101D400040C07840C0784000043F04043F040400D1
:101D5000007088FC08300000001820FF211E0000E1
:101D6000F008F000E018000000211C031E211E00F6
:101D700000F00888700000001E212324192721107C
:101D800010160E000000000000000000000000001F
:101D9000000000E0180402000000000718204000C6
:101DA00000020418E00000000040201807000000B6
:101DB000404080F0804040000202010F010202001A
:101DC000000000F0000000000101011F01010100FE
:101DD000000000000000000080B070000000000063
:101DE00000000000000000000001010101010101EC
:101DF0000000000000000000003030000000000083
:101E00000000000080601804006018060100000057
:101E100000E010080810E000000F102020100F0054
:101E2000001010F8000000000020203F20200000DB
:101E30000070080808887000003028242221300033
:101E400000300888884830000018202020110E003B
:101E50000000C02010F8000000070424243F2400E4
:101E600000F80888880808000019212020110E00B9
:101E700000E0108888180000000F112020110E00CB
:101E800000380808C83808000000003F00000000C3
:101E90000070880808887000001C222121221C0084
:101EA00000E010080810E0000000312222110F00AD
:101EB000000000C0C0000000000000303000000042
:101EC00000000080000000000000806000000000B2
:101ED00000008040201008000001020408102000CB
:101EE0004040404040404000040404040404040016
:101EF00000081020408000000020100804020100AB
:101F0000007048080808F0000000003036010000AA
:101F1000C030C828E810E0000718272423140B005D
:101F20000000C038E0000000203C230202273820D7
:101F300008F8888888700000203F202020110E00BB
:101F4000C0300808080838000718202020100800B2
:101F500008F808080810E000203F202020100F009B
:101F600008F88888E8081000203F20202320180067
:101F700008F88888E8081000203F200003000000CF
:101F8000C03008080838000007182020221E020070
:101F900008F808000008F808203F210101213F202F
:101FA000000808F8080800000020203F202000005A
:101FB00000000808F8080800C08080807F0000004A
:101FC00008F888C028180800203F20012638200083
:101FD00008F8080000000000203F202020203000EA
:101FE00008F8F800F8F80800203F003F003F200004
:101FF00008F830C00008F808203F200007183F000C
:10200000E01008080810E0000F10202020100F003A
:1020100008F808080808F000203F2101010100002D
:10202000E01008080810E0000F18242438504F0072
:1020300008F8888888887000203F2000030C302032
:1020400000708808080838000038202121221C0070
:10205000180808F8080818000000203F20000000B9
:1020600008F808000008F808001F202020201F00A2
:102070000878880000C83808000007380E01000002
:10208000F80800F80008F800033C0700073C0300CC
:10209000081868808068180820302C03032C302032
:1020A0000838C800C83808000000203F20000000A1
:1020B00010080808C83808002038262120201800F9
:1020C000000000FE020202000000007F40404000CD
:1020D000000C30C000000000000000010638C00005
:1020E00000020202FE000000004040407F000000AD
:1020F00000000402020204000000000000000000D2
:1021000000000000000000008080808080808080CF
:1021100000020204000000000000000000000000B7
:1021200000008080808000000019242222223F20AD
:1021300008F8008080000000003F112020110E00F0
:102140000000008080800000000E1120202011007F
:10215000000000808088F800000E112020103F2031
:102160000000808080800000001F222222221300B5
:10217000008080F0888888180020203F2020000000
:102180000000808080808000006B949494936000B5
:1021900008F8008080800000203F210000203F20C0
:1021A00000809898000000000020203F20200000C0
:1021B000000000809898000000C08080807F0000B0
:1021C00008F8000080808000203F24022D3020008D
:1021D000000808F8000000000020203F2020000038
:1021E0008080808080808000203F20003F20003F52
:1021F0008080008080800000203F210000203F2060
:102200000000808080800000001F202020201F0010
:10221000808000808000000080FFA12020110E003F
:102220000000008080808000000E112020A0FF8030
:10223000808080008080800020203F2120000100DD
:102240000000808080808000003324242424190032
:10225000008080E0808000000000001F202000003F
:102260008080000000808000001F202020103F2080
:10227000808080000080808000010E300806010010
:1022800080800080008080800F300C030C300F00B5
:1022900000808000808080000020312E0E312000E0
:1022A000808080000080808080818E701806010010
:1022B00000808080808080000021302C222130002E
:1022C00000000000807C020200000000003F40404F
:1022D00000000000FF00000000000000FF00000000
:1022E0000002027C800000000040403F000000002F
:1022F00000060101020204040000000000000000CA
:102300000800080300000000102700000000010082
:1023100008072700D00700000000010008070000A0
:10232000020000003F9C00000100000000000000CF
:102330000000000008070000180000000030000046
:102340005023000000002020380200002801000077
:04000005000000C136
:00000001FF
